{
  "_format": "hh-sol-artifact-1",
  "contractName": "FlipCoin",
  "sourceName": "contracts/FlipCoin.sol",
  "abi": [
    {
      "inputs": [
        {
          "internalType": "uint64",
          "name": "accountId",
          "type": "uint64"
        },
        {
          "internalType": "address",
          "name": "coordinator",
          "type": "address"
        },
        {
          "internalType": "bytes32",
          "name": "keyHash",
          "type": "bytes32"
        }
      ],
      "stateMutability": "nonpayable",
      "type": "constructor"
    },
    {
      "inputs": [
        {
          "internalType": "address",
          "name": "have",
          "type": "address"
        },
        {
          "internalType": "address",
          "name": "want",
          "type": "address"
        }
      ],
      "name": "OnlyCoordinatorCanFulfill",
      "type": "error"
    },
    {
      "anonymous": false,
      "inputs": [
        {
          "indexed": false,
          "internalType": "address",
          "name": "player",
          "type": "address"
        },
        {
          "indexed": false,
          "internalType": "uint256",
          "name": "amount",
          "type": "uint256"
        }
      ],
      "name": "Claim",
      "type": "event"
    },
    {
      "anonymous": false,
      "inputs": [
        {
          "indexed": false,
          "internalType": "address",
          "name": "player",
          "type": "address"
        },
        {
          "indexed": false,
          "internalType": "uint256",
          "name": "bet",
          "type": "uint256"
        },
        {
          "indexed": false,
          "internalType": "uint256",
          "name": "betAmount",
          "type": "uint256"
        },
        {
          "indexed": false,
          "internalType": "uint256",
          "name": "requestId",
          "type": "uint256"
        }
      ],
      "name": "Flip",
      "type": "event"
    },
    {
      "anonymous": false,
      "inputs": [
        {
          "indexed": true,
          "internalType": "address",
          "name": "previousOwner",
          "type": "address"
        },
        {
          "indexed": true,
          "internalType": "address",
          "name": "newOwner",
          "type": "address"
        }
      ],
      "name": "OwnershipTransferred",
      "type": "event"
    },
    {
      "anonymous": false,
      "inputs": [
        {
          "indexed": false,
          "internalType": "address",
          "name": "player",
          "type": "address"
        },
        {
          "indexed": false,
          "internalType": "uint256",
          "name": "requestid",
          "type": "uint256"
        },
        {
          "indexed": false,
          "internalType": "uint256",
          "name": "result",
          "type": "uint256"
        },
        {
          "indexed": false,
          "internalType": "uint256",
          "name": "randomResult",
          "type": "uint256"
        }
      ],
      "name": "Result",
      "type": "event"
    },
    {
      "anonymous": false,
      "inputs": [
        {
          "indexed": false,
          "internalType": "uint64",
          "name": "accId",
          "type": "uint64"
        }
      ],
      "name": "SetAccountId",
      "type": "event"
    },
    {
      "anonymous": false,
      "inputs": [
        {
          "indexed": false,
          "internalType": "address",
          "name": "setter",
          "type": "address"
        },
        {
          "indexed": false,
          "internalType": "address",
          "name": "newCoordinator",
          "type": "address"
        }
      ],
      "name": "SetCoordinator",
      "type": "event"
    },
    {
      "anonymous": false,
      "inputs": [
        {
          "indexed": false,
          "internalType": "address",
          "name": "setter",
          "type": "address"
        },
        {
          "indexed": false,
          "internalType": "uint256",
          "name": "newFee",
          "type": "uint256"
        }
      ],
      "name": "SetTaxFee",
      "type": "event"
    },
    {
      "inputs": [],
      "name": "claim",
      "outputs": [],
      "stateMutability": "nonpayable",
      "type": "function"
    },
    {
      "inputs": [
        {
          "internalType": "uint256",
          "name": "bet",
          "type": "uint256"
        }
      ],
      "name": "flip",
      "outputs": [],
      "stateMutability": "payable",
      "type": "function"
    },
    {
      "inputs": [],
      "name": "owner",
      "outputs": [
        {
          "internalType": "address",
          "name": "",
          "type": "address"
        }
      ],
      "stateMutability": "view",
      "type": "function"
    },
    {
      "inputs": [
        {
          "internalType": "address",
          "name": "",
          "type": "address"
        }
      ],
      "name": "playerInfors",
      "outputs": [
        {
          "internalType": "uint256",
          "name": "winCount",
          "type": "uint256"
        },
        {
          "internalType": "uint256",
          "name": "total",
          "type": "uint256"
        },
        {
          "internalType": "uint256",
          "name": "balance",
          "type": "uint256"
        }
      ],
      "stateMutability": "view",
      "type": "function"
    },
    {
      "inputs": [
        {
          "internalType": "address",
          "name": "",
          "type": "address"
        },
        {
          "internalType": "uint256",
          "name": "",
          "type": "uint256"
        }
      ],
      "name": "players",
      "outputs": [
        {
          "internalType": "uint256",
          "name": "",
          "type": "uint256"
        }
      ],
      "stateMutability": "view",
      "type": "function"
    },
    {
      "inputs": [
        {
          "internalType": "uint256",
          "name": "requestId",
          "type": "uint256"
        },
        {
          "internalType": "uint256[]",
          "name": "randomWords",
          "type": "uint256[]"
        }
      ],
      "name": "rawFulfillRandomWords",
      "outputs": [],
      "stateMutability": "nonpayable",
      "type": "function"
    },
    {
      "inputs": [],
      "name": "renounceOwnership",
      "outputs": [],
      "stateMutability": "nonpayable",
      "type": "function"
    },
    {
      "inputs": [
        {
          "internalType": "uint256",
          "name": "",
          "type": "uint256"
        }
      ],
      "name": "requestInfors",
      "outputs": [
        {
          "internalType": "address",
          "name": "player",
          "type": "address"
        },
        {
          "internalType": "uint256",
          "name": "bet",
          "type": "uint256"
        },
        {
          "internalType": "uint256",
          "name": "betAmount",
          "type": "uint256"
        },
        {
          "internalType": "uint256",
          "name": "result",
          "type": "uint256"
        },
        {
          "internalType": "bool",
          "name": "hasResult",
          "type": "bool"
        }
      ],
      "stateMutability": "view",
      "type": "function"
    },
    {
      "inputs": [],
      "name": "sAccountId",
      "outputs": [
        {
          "internalType": "uint64",
          "name": "",
          "type": "uint64"
        }
      ],
      "stateMutability": "view",
      "type": "function"
    },
    {
      "inputs": [],
      "name": "sKeyHash",
      "outputs": [
        {
          "internalType": "bytes32",
          "name": "",
          "type": "bytes32"
        }
      ],
      "stateMutability": "view",
      "type": "function"
    },
    {
      "inputs": [
        {
          "internalType": "uint64",
          "name": "accId",
          "type": "uint64"
        }
      ],
      "name": "setAccountId",
      "outputs": [],
      "stateMutability": "nonpayable",
      "type": "function"
    },
    {
      "inputs": [
        {
          "internalType": "uint32",
          "name": "newGas",
          "type": "uint32"
        }
      ],
      "name": "setGasLimit",
      "outputs": [],
      "stateMutability": "nonpayable",
      "type": "function"
    },
    {
      "inputs": [
        {
          "internalType": "bytes32",
          "name": "newHash",
          "type": "bytes32"
        }
      ],
      "name": "setKeyHash",
      "outputs": [],
      "stateMutability": "nonpayable",
      "type": "function"
    },
    {
      "inputs": [
        {
          "internalType": "uint256",
          "name": "newFee",
          "type": "uint256"
        }
      ],
      "name": "setTaxFee",
      "outputs": [],
      "stateMutability": "nonpayable",
      "type": "function"
    },
    {
      "inputs": [],
      "name": "taxFee",
      "outputs": [
        {
          "internalType": "uint256",
          "name": "",
          "type": "uint256"
        }
      ],
      "stateMutability": "view",
      "type": "function"
    },
    {
      "inputs": [],
      "name": "taxFeeMax",
      "outputs": [
        {
          "internalType": "uint256",
          "name": "",
          "type": "uint256"
        }
      ],
      "stateMutability": "view",
      "type": "function"
    },
    {
      "inputs": [],
      "name": "totalRemainBalance",
      "outputs": [
        {
          "internalType": "uint256",
          "name": "",
          "type": "uint256"
        }
      ],
      "stateMutability": "view",
      "type": "function"
    },
    {
      "inputs": [],
      "name": "totalRequest",
      "outputs": [
        {
          "internalType": "uint256",
          "name": "",
          "type": "uint256"
        }
      ],
      "stateMutability": "view",
      "type": "function"
    },
    {
      "inputs": [],
      "name": "totalWinCount",
      "outputs": [
        {
          "internalType": "uint256",
          "name": "",
          "type": "uint256"
        }
      ],
      "stateMutability": "view",
      "type": "function"
    },
    {
      "inputs": [
        {
          "internalType": "address",
          "name": "newOwner",
          "type": "address"
        }
      ],
      "name": "transferOwnership",
      "outputs": [],
      "stateMutability": "nonpayable",
      "type": "function"
    },
    {
      "inputs": [
        {
          "internalType": "uint256",
          "name": "amount",
          "type": "uint256"
        }
      ],
      "name": "withdraw",
      "outputs": [],
      "stateMutability": "nonpayable",
      "type": "function"
    },
    {
      "stateMutability": "payable",
      "type": "receive"
    }
  ],
  "bytecode": "0x60a0604052620493e0600360006101000a81548163ffffffff021916908363ffffffff1602179055506001600360046101000a81548163ffffffff021916908363ffffffff160217905550602360045560326005556000600655600060075560006008553480156200007057600080fd5b506040516200232b3803806200232b83398181016040528101906200009691906200031c565b818073ffffffffffffffffffffffffffffffffffffffff1660808173ffffffffffffffffffffffffffffffffffffffff168152505050620000ec620000e06200016660201b60201c565b6200016e60201b60201c565b81600160006101000a81548173ffffffffffffffffffffffffffffffffffffffff021916908373ffffffffffffffffffffffffffffffffffffffff16021790555082600160146101000a81548167ffffffffffffffff021916908367ffffffffffffffff1602179055508060028190555050505062000378565b600033905090565b60008060009054906101000a900473ffffffffffffffffffffffffffffffffffffffff169050816000806101000a81548173ffffffffffffffffffffffffffffffffffffffff021916908373ffffffffffffffffffffffffffffffffffffffff1602179055508173ffffffffffffffffffffffffffffffffffffffff168173ffffffffffffffffffffffffffffffffffffffff167f8be0079c531659141344cd1fd0a4f28419497f9722a3daafe3b4186f6b6457e060405160405180910390a35050565b600080fd5b600067ffffffffffffffff82169050919050565b620002568162000237565b81146200026257600080fd5b50565b60008151905062000276816200024b565b92915050565b600073ffffffffffffffffffffffffffffffffffffffff82169050919050565b6000620002a9826200027c565b9050919050565b620002bb816200029c565b8114620002c757600080fd5b50565b600081519050620002db81620002b0565b92915050565b6000819050919050565b620002f681620002e1565b81146200030257600080fd5b50565b6000815190506200031681620002eb565b92915050565b60008060006060848603121562000338576200033762000232565b5b6000620003488682870162000265565b93505060206200035b86828701620002ca565b92505060406200036e8682870162000305565b9150509250925092565b608051611f906200039b600039600081816104c6015261051a0152611f906000f3fe60806040526004361061012e5760003560e01c806361fac9d1116100ab578063a071dcf41161006f578063a071dcf4146103a8578063c4081a4c146103d3578063cca820fc146103fc578063f198665c1461043b578063f2fde38b14610466578063f499c8201461048f57610135565b806361fac9d1146102bf578063715018a6146103005780638da5cb5b1461031757806398544710146103425780639c7531221461036b57610135565b80632b7317e9116100f25780632b7317e9146102005780632e1a7d4d1461022b5780634e71d92d1461025457806352d84c621461026b578063612597451461029457610135565b80630731aee11461013a5780631ce062f7146101655780631fe543e3146101905780632136b711146101b9578063221e885d146101e457610135565b3661013557005b600080fd5b34801561014657600080fd5b5061014f6104b8565b60405161015c919061149f565b60405180910390f35b34801561017157600080fd5b5061017a6104be565b60405161018791906114d3565b60405180910390f35b34801561019c57600080fd5b506101b760048036038101906101b29190611687565b6104c4565b005b3480156101c557600080fd5b506101ce610584565b6040516101db9190611706565b60405180910390f35b6101fe60048036038101906101f99190611721565b61059e565b005b34801561020c57600080fd5b5061021561086a565b604051610222919061149f565b60405180910390f35b34801561023757600080fd5b50610252600480360381019061024d9190611721565b610870565b005b34801561026057600080fd5b5061026961098c565b005b34801561027757600080fd5b50610292600480360381019061028d919061178a565b610b05565b005b3480156102a057600080fd5b506102a9610ba5565b6040516102b6919061149f565b60405180910390f35b3480156102cb57600080fd5b506102e660048036038101906102e19190611721565b610bab565b6040516102f7959493929190611813565b60405180910390f35b34801561030c57600080fd5b50610315610c0e565b005b34801561032357600080fd5b5061032c610c96565b6040516103399190611866565b60405180910390f35b34801561034e57600080fd5b50610369600480360381019061036491906118ad565b610cbf565b005b34801561037757600080fd5b50610392600480360381019061038d9190611906565b610d45565b60405161039f919061149f565b60405180910390f35b3480156103b457600080fd5b506103bd610d76565b6040516103ca919061149f565b60405180910390f35b3480156103df57600080fd5b506103fa60048036038101906103f59190611721565b610d7c565b005b34801561040857600080fd5b50610423600480360381019061041e9190611946565b610e80565b60405161043293929190611973565b60405180910390f35b34801561044757600080fd5b50610450610eaa565b60405161045d919061149f565b60405180910390f35b34801561047257600080fd5b5061048d60048036038101906104889190611946565b610eb0565b005b34801561049b57600080fd5b506104b660048036038101906104b191906119d6565b610fa7565b005b60055481565b60025481565b7f000000000000000000000000000000000000000000000000000000000000000073ffffffffffffffffffffffffffffffffffffffff163373ffffffffffffffffffffffffffffffffffffffff161461057657337f00000000000000000000000000000000000000000000000000000000000000006040517f1cf993f400000000000000000000000000000000000000000000000000000000815260040161056d929190611a03565b60405180910390fd5b6105808282611086565b5050565b600160149054906101000a900467ffffffffffffffff1681565b6000349050803373ffffffffffffffffffffffffffffffffffffffff163110156105fd576040517f08c379a00000000000000000000000000000000000000000000000000000000081526004016105f490611a89565b60405180910390fd5b60006103e86004546103e86106129190611ad8565b3461061d9190611b3b565b6106279190611b6c565b905060006103e860045461063b9190611b3b565b826106469190611b6c565b905060006008548260028561065b9190611b6c565b6106659190611ad8565b61066f9190611ad8565b9050804710156106b4576040517f08c379a00000000000000000000000000000000000000000000000000000000081526004016106ab90611c38565b60405180910390fd5b60006106be6112d3565b9050600b60003373ffffffffffffffffffffffffffffffffffffffff1673ffffffffffffffffffffffffffffffffffffffff168152602001908152602001600020819080600181540180825580915050600190039060005260206000200160009091909190915055336009600083815260200190815260200160002060000160006101000a81548173ffffffffffffffffffffffffffffffffffffffff021916908373ffffffffffffffffffffffffffffffffffffffff1602179055508560096000838152602001908152602001600020600101819055508360096000838152602001908152602001600020600201819055506001600660008282546107c49190611ad8565b925050819055506001600a60003373ffffffffffffffffffffffffffffffffffffffff1673ffffffffffffffffffffffffffffffffffffffff168152602001908152602001600020600101600082825461081e9190611ad8565b925050819055507fbe9c5554beaa5575f3f13c752a80526c54039b282e5131add4ee4a6ea02a4cfa3387868460405161085a9493929190611c58565b60405180910390a1505050505050565b60085481565b6108786113ba565b73ffffffffffffffffffffffffffffffffffffffff16610896610c96565b73ffffffffffffffffffffffffffffffffffffffff16146108ec576040517f08c379a00000000000000000000000000000000000000000000000000000000081526004016108e390611ce9565b60405180910390fd5b6000600854476108fc9190611d09565b905081811015610941576040517f08c379a000000000000000000000000000000000000000000000000000000000815260040161093890611c38565b60405180910390fd5b3373ffffffffffffffffffffffffffffffffffffffff166108fc839081150290604051600060405180830381858888f19350505050158015610987573d6000803e3d6000fd5b505050565b6000600a60003373ffffffffffffffffffffffffffffffffffffffff1673ffffffffffffffffffffffffffffffffffffffff168152602001908152602001600020905060008160020154905060008111610a1b576040517f08c379a0000000000000000000000000000000000000000000000000000000008152600401610a1290611a89565b60405180910390fd5b80471015610a5e576040517f08c379a0000000000000000000000000000000000000000000000000000000008152600401610a5590611c38565b60405180910390fd5b600082600201819055508060086000828254610a7a9190611d09565b925050819055503373ffffffffffffffffffffffffffffffffffffffff166108fc829081150290604051600060405180830381858888f19350505050158015610ac7573d6000803e3d6000fd5b507f47cee97cb7acd717b3c0aa1435d004cd5b3c8c57d70dbceb4e4458bbd60e39d43382604051610af9929190611d3d565b60405180910390a15050565b610b0d6113ba565b73ffffffffffffffffffffffffffffffffffffffff16610b2b610c96565b73ffffffffffffffffffffffffffffffffffffffff1614610b81576040517f08c379a0000000000000000000000000000000000000000000000000000000008152600401610b7890611ce9565b60405180910390fd5b80600360006101000a81548163ffffffff021916908363ffffffff16021790555050565b60065481565b60096020528060005260406000206000915090508060000160009054906101000a900473ffffffffffffffffffffffffffffffffffffffff16908060010154908060020154908060030154908060040160009054906101000a900460ff16905085565b610c166113ba565b73ffffffffffffffffffffffffffffffffffffffff16610c34610c96565b73ffffffffffffffffffffffffffffffffffffffff1614610c8a576040517f08c379a0000000000000000000000000000000000000000000000000000000008152600401610c8190611ce9565b60405180910390fd5b610c9460006113c2565b565b60008060009054906101000a900473ffffffffffffffffffffffffffffffffffffffff16905090565b610cc76113ba565b73ffffffffffffffffffffffffffffffffffffffff16610ce5610c96565b73ffffffffffffffffffffffffffffffffffffffff1614610d3b576040517f08c379a0000000000000000000000000000000000000000000000000000000008152600401610d3290611ce9565b60405180910390fd5b8060028190555050565b600b6020528160005260406000208181548110610d6157600080fd5b90600052602060002001600091509150505481565b60045481565b610d846113ba565b73ffffffffffffffffffffffffffffffffffffffff16610da2610c96565b73ffffffffffffffffffffffffffffffffffffffff1614610df8576040517f08c379a0000000000000000000000000000000000000000000000000000000008152600401610def90611ce9565b60405180910390fd5b600554811115610e3d576040517f08c379a0000000000000000000000000000000000000000000000000000000008152600401610e3490611db2565b60405180910390fd5b806004819055507ff5d3b87d32b155677dd4e4ea2381c5c0c15ae9ec551df02a9d576ff9b8a907c03382604051610e75929190611d3d565b60405180910390a150565b600a6020528060005260406000206000915090508060000154908060010154908060020154905083565b60075481565b610eb86113ba565b73ffffffffffffffffffffffffffffffffffffffff16610ed6610c96565b73ffffffffffffffffffffffffffffffffffffffff1614610f2c576040517f08c379a0000000000000000000000000000000000000000000000000000000008152600401610f2390611ce9565b60405180910390fd5b600073ffffffffffffffffffffffffffffffffffffffff168173ffffffffffffffffffffffffffffffffffffffff1603610f9b576040517f08c379a0000000000000000000000000000000000000000000000000000000008152600401610f9290611e44565b60405180910390fd5b610fa4816113c2565b50565b610faf6113ba565b73ffffffffffffffffffffffffffffffffffffffff16610fcd610c96565b73ffffffffffffffffffffffffffffffffffffffff1614611023576040517f08c379a000000000000000000000000000000000000000000000000000000000815260040161101a90611ce9565b60405180910390fd5b80600160146101000a81548167ffffffffffffffff021916908367ffffffffffffffff1602179055507f502377d5ad3cc66a011d6ef4d38c19c1adc3498bfd9e943c8a35882b149fd4e78160405161107b9190611706565b60405180910390a150565b600060028260008151811061109e5761109d611e64565b5b60200260200101516110b09190611e93565b905080600960008581526020019081526020016000206003018190555060016009600085815260200190815260200160002060040160006101000a81548160ff02191690831515021790555060006009600085815260200190815260200160002060010154905060006009600086815260200190815260200160002060020154905060006009600087815260200190815260200160002060000160009054906101000a900473ffffffffffffffffffffffffffffffffffffffff169050838303611273576001600a60008373ffffffffffffffffffffffffffffffffffffffff1673ffffffffffffffffffffffffffffffffffffffff16815260200190815260200160002060000160008282546111c79190611ad8565b925050819055506002826111db9190611b6c565b600a60008373ffffffffffffffffffffffffffffffffffffffff1673ffffffffffffffffffffffffffffffffffffffff168152602001908152602001600020600201600082825461122c9190611ad8565b925050819055506001600760008282546112469190611ad8565b9250508190555060028261125a9190611b6c565b6008600082825461126b9190611ad8565b925050819055505b7f1c4737339dea4aa5e84923edf02546855354350860e4009754243cd536049c59818786886000815181106112ab576112aa611e64565b5b60200260200101516040516112c39493929190611c58565b60405180910390a1505050505050565b6000600160009054906101000a900473ffffffffffffffffffffffffffffffffffffffff1673ffffffffffffffffffffffffffffffffffffffff16632f34077b600254600160149054906101000a900467ffffffffffffffff16600360009054906101000a900463ffffffff16600360049054906101000a900463ffffffff166040518563ffffffff1660e01b81526004016113729493929190611ed3565b6020604051808303816000875af1158015611391573d6000803e3d6000fd5b505050506040513d601f19601f820116820180604052508101906113b59190611f2d565b905090565b600033905090565b60008060009054906101000a900473ffffffffffffffffffffffffffffffffffffffff169050816000806101000a81548173ffffffffffffffffffffffffffffffffffffffff021916908373ffffffffffffffffffffffffffffffffffffffff1602179055508173ffffffffffffffffffffffffffffffffffffffff168173ffffffffffffffffffffffffffffffffffffffff167f8be0079c531659141344cd1fd0a4f28419497f9722a3daafe3b4186f6b6457e060405160405180910390a35050565b6000819050919050565b61149981611486565b82525050565b60006020820190506114b46000830184611490565b92915050565b6000819050919050565b6114cd816114ba565b82525050565b60006020820190506114e860008301846114c4565b92915050565b6000604051905090565b600080fd5b600080fd5b61150b81611486565b811461151657600080fd5b50565b60008135905061152881611502565b92915050565b600080fd5b6000601f19601f8301169050919050565b7f4e487b7100000000000000000000000000000000000000000000000000000000600052604160045260246000fd5b61157c82611533565b810181811067ffffffffffffffff8211171561159b5761159a611544565b5b80604052505050565b60006115ae6114ee565b90506115ba8282611573565b919050565b600067ffffffffffffffff8211156115da576115d9611544565b5b602082029050602081019050919050565b600080fd5b60006116036115fe846115bf565b6115a4565b90508083825260208201905060208402830185811115611626576116256115eb565b5b835b8181101561164f578061163b8882611519565b845260208401935050602081019050611628565b5050509392505050565b600082601f83011261166e5761166d61152e565b5b813561167e8482602086016115f0565b91505092915050565b6000806040838503121561169e5761169d6114f8565b5b60006116ac85828601611519565b925050602083013567ffffffffffffffff8111156116cd576116cc6114fd565b5b6116d985828601611659565b9150509250929050565b600067ffffffffffffffff82169050919050565b611700816116e3565b82525050565b600060208201905061171b60008301846116f7565b92915050565b600060208284031215611737576117366114f8565b5b600061174584828501611519565b91505092915050565b600063ffffffff82169050919050565b6117678161174e565b811461177257600080fd5b50565b6000813590506117848161175e565b92915050565b6000602082840312156117a05761179f6114f8565b5b60006117ae84828501611775565b91505092915050565b600073ffffffffffffffffffffffffffffffffffffffff82169050919050565b60006117e2826117b7565b9050919050565b6117f2816117d7565b82525050565b60008115159050919050565b61180d816117f8565b82525050565b600060a08201905061182860008301886117e9565b6118356020830187611490565b6118426040830186611490565b61184f6060830185611490565b61185c6080830184611804565b9695505050505050565b600060208201905061187b60008301846117e9565b92915050565b61188a816114ba565b811461189557600080fd5b50565b6000813590506118a781611881565b92915050565b6000602082840312156118c3576118c26114f8565b5b60006118d184828501611898565b91505092915050565b6118e3816117d7565b81146118ee57600080fd5b50565b600081359050611900816118da565b92915050565b6000806040838503121561191d5761191c6114f8565b5b600061192b858286016118f1565b925050602061193c85828601611519565b9150509250929050565b60006020828403121561195c5761195b6114f8565b5b600061196a848285016118f1565b91505092915050565b60006060820190506119886000830186611490565b6119956020830185611490565b6119a26040830184611490565b949350505050565b6119b3816116e3565b81146119be57600080fd5b50565b6000813590506119d0816119aa565b92915050565b6000602082840312156119ec576119eb6114f8565b5b60006119fa848285016119c1565b91505092915050565b6000604082019050611a1860008301856117e9565b611a2560208301846117e9565b9392505050565b600082825260208201905092915050565b7f496e73756666696369656e74206163636f756e742062616c616e636500000000600082015250565b6000611a73601c83611a2c565b9150611a7e82611a3d565b602082019050919050565b60006020820190508181036000830152611aa281611a66565b9050919050565b7f4e487b7100000000000000000000000000000000000000000000000000000000600052601160045260246000fd5b6000611ae382611486565b9150611aee83611486565b9250828201905080821115611b0657611b05611aa9565b5b92915050565b7f4e487b7100000000000000000000000000000000000000000000000000000000600052601260045260246000fd5b6000611b4682611486565b9150611b5183611486565b925082611b6157611b60611b0c565b5b828204905092915050565b6000611b7782611486565b9150611b8283611486565b9250817fffffffffffffffffffffffffffffffffffffffffffffffffffffffffffffffff0483118215151615611bbb57611bba611aa9565b5b828202905092915050565b7f466c6970436f696e3a20496e73756666696369656e74206163636f756e74206260008201527f616c616e63650000000000000000000000000000000000000000000000000000602082015250565b6000611c22602683611a2c565b9150611c2d82611bc6565b604082019050919050565b60006020820190508181036000830152611c5181611c15565b9050919050565b6000608082019050611c6d60008301876117e9565b611c7a6020830186611490565b611c876040830185611490565b611c946060830184611490565b95945050505050565b7f4f776e61626c653a2063616c6c6572206973206e6f7420746865206f776e6572600082015250565b6000611cd3602083611a2c565b9150611cde82611c9d565b602082019050919050565b60006020820190508181036000830152611d0281611cc6565b9050919050565b6000611d1482611486565b9150611d1f83611486565b9250828203905081811115611d3757611d36611aa9565b5b92915050565b6000604082019050611d5260008301856117e9565b611d5f6020830184611490565b9392505050565b7f466565206f7574206f662072616e676500000000000000000000000000000000600082015250565b6000611d9c601083611a2c565b9150611da782611d66565b602082019050919050565b60006020820190508181036000830152611dcb81611d8f565b9050919050565b7f4f776e61626c653a206e6577206f776e657220697320746865207a65726f206160008201527f6464726573730000000000000000000000000000000000000000000000000000602082015250565b6000611e2e602683611a2c565b9150611e3982611dd2565b604082019050919050565b60006020820190508181036000830152611e5d81611e21565b9050919050565b7f4e487b7100000000000000000000000000000000000000000000000000000000600052603260045260246000fd5b6000611e9e82611486565b9150611ea983611486565b925082611eb957611eb8611b0c565b5b828206905092915050565b611ecd8161174e565b82525050565b6000608082019050611ee860008301876114c4565b611ef560208301866116f7565b611f026040830185611ec4565b611f0f6060830184611ec4565b95945050505050565b600081519050611f2781611502565b92915050565b600060208284031215611f4357611f426114f8565b5b6000611f5184828501611f18565b9150509291505056fea2646970667358221220157a8d9c20182427e5734528a2063f5a47fb7a886613d1e29a599758f8474ae664736f6c63430008100033",
  "linkReferences": {},
  "deployedLinkReferences": {}
}